{
  "address": "0xD1cfA489F7eABf322C5EE1B3779ca6Be9Ce08a8e",
  "abi": [
    {
      "inputs": [
        {
          "internalType": "address",
          "name": "forwarder",
          "type": "address"
        }
      ],
      "stateMutability": "nonpayable",
      "type": "constructor"
    },
    {
      "anonymous": false,
      "inputs": [
        {
          "indexed": false,
          "internalType": "address",
          "name": "previousHolder",
          "type": "address"
        },
        {
          "indexed": false,
          "internalType": "address",
          "name": "currentHolder",
          "type": "address"
        }
      ],
      "name": "FlagCaptured",
      "type": "event"
    },
    {
      "anonymous": false,
      "inputs": [
        {
          "indexed": true,
          "internalType": "address",
          "name": "previousOwner",
          "type": "address"
        },
        {
          "indexed": true,
          "internalType": "address",
          "name": "newOwner",
          "type": "address"
        }
      ],
      "name": "OwnershipTransferred",
      "type": "event"
    },
    {
      "inputs": [],
      "name": "captureTheFlag",
      "outputs": [],
      "stateMutability": "nonpayable",
      "type": "function"
    },
    {
      "inputs": [],
      "name": "currentHolder",
      "outputs": [
        {
          "internalType": "address",
          "name": "",
          "type": "address"
        }
      ],
      "stateMutability": "view",
      "type": "function"
    },
    {
      "inputs": [],
      "name": "getTrustedForwarder",
      "outputs": [
        {
          "internalType": "address",
          "name": "forwarder",
          "type": "address"
        }
      ],
      "stateMutability": "view",
      "type": "function"
    },
    {
      "inputs": [
        {
          "internalType": "address",
          "name": "forwarder",
          "type": "address"
        }
      ],
      "name": "isTrustedForwarder",
      "outputs": [
        {
          "internalType": "bool",
          "name": "",
          "type": "bool"
        }
      ],
      "stateMutability": "view",
      "type": "function"
    },
    {
      "inputs": [],
      "name": "owner",
      "outputs": [
        {
          "internalType": "address",
          "name": "",
          "type": "address"
        }
      ],
      "stateMutability": "view",
      "type": "function"
    },
    {
      "inputs": [],
      "name": "renounceOwnership",
      "outputs": [],
      "stateMutability": "nonpayable",
      "type": "function"
    },
    {
      "inputs": [
        {
          "internalType": "address",
          "name": "newOwner",
          "type": "address"
        }
      ],
      "name": "transferOwnership",
      "outputs": [],
      "stateMutability": "nonpayable",
      "type": "function"
    }
  ],
  "transactionHash": "0xb196f7f406bae1e5319556e6e74167b6f82ffa6cf5c544f220a29f8ce3af5918",
  "args": [
    "0xB2b5841DBeF766d4b521221732F9B618fCf34A87"
  ],
  "numDeployments": 3,
  "solcInputHash": "6d9e82f8cc7b961abdada6068ecbfbc0",
  "bytecode": "0x60806040526000600260006101000a81548173ffffffffffffffffffffffffffffffffffffffff021916908373ffffffffffffffffffffffffffffffffffffffff16021790555034801561005257600080fd5b50604051610ac0380380610ac0833981810160405281019061007491906102c0565b6100906100856100a560201b60201c565b6100be60201b60201c565b61009f8161018460201b60201c565b506102ed565b60006100b96101c760201b61045a1760201c565b905090565b6000600160009054906101000a900473ffffffffffffffffffffffffffffffffffffffff16905081600160006101000a81548173ffffffffffffffffffffffffffffffffffffffff021916908373ffffffffffffffffffffffffffffffffffffffff1602179055508173ffffffffffffffffffffffffffffffffffffffff168173ffffffffffffffffffffffffffffffffffffffff167f8be0079c531659141344cd1fd0a4f28419497f9722a3daafe3b4186f6b6457e060405160405180910390a35050565b806000806101000a81548173ffffffffffffffffffffffffffffffffffffffff021916908373ffffffffffffffffffffffffffffffffffffffff16021790555050565b600060146000369050101580156101e957506101e83361020460201b60201c565b5b156101fd57601436033560601c9050610201565b3390505b90565b60008060009054906101000a900473ffffffffffffffffffffffffffffffffffffffff1673ffffffffffffffffffffffffffffffffffffffff168273ffffffffffffffffffffffffffffffffffffffff16149050919050565b600080fd5b600073ffffffffffffffffffffffffffffffffffffffff82169050919050565b600061028d82610262565b9050919050565b61029d81610282565b81146102a857600080fd5b50565b6000815190506102ba81610294565b92915050565b6000602082840312156102d6576102d561025d565b5b60006102e4848285016102ab565b91505092915050565b6107c4806102fc6000396000f3fe608060405234801561001057600080fd5b506004361061007c5760003560e01c8063715018a61161005b578063715018a6146100d95780638da5cb5b146100e3578063ce1b815f14610101578063f2fde38b1461011f5761007c565b80624225b814610081578063239e26f21461009f578063572b6c05146100a9575b600080fd5b61008961013b565b60405161009691906105a7565b60405180910390f35b6100a7610161565b005b6100c360048036038101906100be91906105f3565b61022e565b6040516100d0919061063b565b60405180910390f35b6100e1610287565b005b6100eb61030f565b6040516100f891906105a7565b60405180910390f35b610109610339565b60405161011691906105a7565b60405180910390f35b610139600480360381019061013491906105f3565b610362565b005b600260009054906101000a900473ffffffffffffffffffffffffffffffffffffffff1681565b6000600260009054906101000a900473ffffffffffffffffffffffffffffffffffffffff169050610190610491565b600260006101000a81548173ffffffffffffffffffffffffffffffffffffffff021916908373ffffffffffffffffffffffffffffffffffffffff1602179055507facc718a11fbc93a22905740808767480f9efd07b1c0b0128095790cd1440048d81600260009054906101000a900473ffffffffffffffffffffffffffffffffffffffff16604051610223929190610656565b60405180910390a150565b60008060009054906101000a900473ffffffffffffffffffffffffffffffffffffffff1673ffffffffffffffffffffffffffffffffffffffff168273ffffffffffffffffffffffffffffffffffffffff16149050919050565b61028f610491565b73ffffffffffffffffffffffffffffffffffffffff166102ad61030f565b73ffffffffffffffffffffffffffffffffffffffff1614610303576040517f08c379a00000000000000000000000000000000000000000000000000000000081526004016102fa906106dc565b60405180910390fd5b61030d60006104a0565b565b6000600160009054906101000a900473ffffffffffffffffffffffffffffffffffffffff16905090565b60008060009054906101000a900473ffffffffffffffffffffffffffffffffffffffff16905090565b61036a610491565b73ffffffffffffffffffffffffffffffffffffffff1661038861030f565b73ffffffffffffffffffffffffffffffffffffffff16146103de576040517f08c379a00000000000000000000000000000000000000000000000000000000081526004016103d5906106dc565b60405180910390fd5b600073ffffffffffffffffffffffffffffffffffffffff168173ffffffffffffffffffffffffffffffffffffffff16141561044e576040517f08c379a00000000000000000000000000000000000000000000000000000000081526004016104459061076e565b60405180910390fd5b610457816104a0565b50565b6000601460003690501015801561047657506104753361022e565b5b1561048a57601436033560601c905061048e565b3390505b90565b600061049b61045a565b905090565b6000600160009054906101000a900473ffffffffffffffffffffffffffffffffffffffff16905081600160006101000a81548173ffffffffffffffffffffffffffffffffffffffff021916908373ffffffffffffffffffffffffffffffffffffffff1602179055508173ffffffffffffffffffffffffffffffffffffffff168173ffffffffffffffffffffffffffffffffffffffff167f8be0079c531659141344cd1fd0a4f28419497f9722a3daafe3b4186f6b6457e060405160405180910390a35050565b600073ffffffffffffffffffffffffffffffffffffffff82169050919050565b600061059182610566565b9050919050565b6105a181610586565b82525050565b60006020820190506105bc6000830184610598565b92915050565b600080fd5b6105d081610586565b81146105db57600080fd5b50565b6000813590506105ed816105c7565b92915050565b600060208284031215610609576106086105c2565b5b6000610617848285016105de565b91505092915050565b60008115159050919050565b61063581610620565b82525050565b6000602082019050610650600083018461062c565b92915050565b600060408201905061066b6000830185610598565b6106786020830184610598565b9392505050565b600082825260208201905092915050565b7f4f776e61626c653a2063616c6c6572206973206e6f7420746865206f776e6572600082015250565b60006106c660208361067f565b91506106d182610690565b602082019050919050565b600060208201905081810360008301526106f5816106b9565b9050919050565b7f4f776e61626c653a206e6577206f776e657220697320746865207a65726f206160008201527f6464726573730000000000000000000000000000000000000000000000000000602082015250565b600061075860268361067f565b9150610763826106fc565b604082019050919050565b600060208201905081810360008301526107878161074b565b905091905056fea2646970667358221220828bb67923a89d314c8460406573157c5f3c7ab3eed06012f85e82c80d35a04564736f6c634300080c0033",
  "devdoc": {
    "kind": "dev",
    "methods": {
      "getTrustedForwarder()": {
        "returns": {
          "forwarder": "The address of the Forwarder contract that is being used."
        }
      },
      "isTrustedForwarder(address)": {
        "params": {
          "forwarder": "The address of the Forwarder contract that is being used."
        },
        "returns": {
          "_0": "isTrustedForwarder `true` if the Forwarder is trusted to forward relayed transactions by this Recipient."
        }
      },
      "owner()": {
        "details": "Returns the address of the current owner."
      },
      "renounceOwnership()": {
        "details": "Leaves the contract without owner. It will not be possible to call `onlyOwner` functions anymore. Can only be called by the current owner. NOTE: Renouncing ownership will leave the contract without an owner, thereby removing any functionality that is only available to the owner."
      },
      "transferOwnership(address)": {
        "details": "Transfers ownership of the contract to a new account (`newOwner`). Can only be called by the current owner."
      }
    },
    "version": 1
  },
  "userdoc": {
    "kind": "user",
    "methods": {
      "getTrustedForwarder()": {
        "notice": ":warning: **Warning** :warning: The Forwarder can have a full control over your Recipient. Only trust verified Forwarder.Method is not a required method to allow Recipients to trust multiple Forwarders. Not recommended yet."
      },
      "isTrustedForwarder(address)": {
        "notice": ":warning: **Warning** :warning: The Forwarder can have a full control over your Recipient. Only trust verified Forwarder."
      }
    },
    "version": 1
  },
  "storageLayout": {
    "storage": [
      {
        "astId": 7,
        "contract": "contracts/CaptureTheFlag.sol:CaptureTheFlag",
        "label": "_trustedForwarder",
        "offset": 0,
        "slot": "0",
        "type": "t_address"
      },
      {
        "astId": 134,
        "contract": "contracts/CaptureTheFlag.sol:CaptureTheFlag",
        "label": "_owner",
        "offset": 0,
        "slot": "1",
        "type": "t_address"
      },
      {
        "astId": 273,
        "contract": "contracts/CaptureTheFlag.sol:CaptureTheFlag",
        "label": "currentHolder",
        "offset": 0,
        "slot": "2",
        "type": "t_address"
      }
    ],
    "types": {
      "t_address": {
        "encoding": "inplace",
        "label": "address",
        "numberOfBytes": "20"
      }
    }
  }
}