{
  "address": "0x72da187896669E4591AEb3B6deE70Ac3D39C6932",
  "abi": [
    {
      "inputs": [
        {
          "internalType": "uint8",
          "name": "_difficulty",
          "type": "uint8"
        }
      ],
      "stateMutability": "nonpayable",
      "type": "constructor"
    },
    {
      "anonymous": false,
      "inputs": [
        {
          "indexed": true,
          "internalType": "address",
          "name": "previousOwner",
          "type": "address"
        },
        {
          "indexed": true,
          "internalType": "address",
          "name": "newOwner",
          "type": "address"
        }
      ],
      "name": "OwnershipTransferred",
      "type": "event"
    },
    {
      "inputs": [],
      "name": "CALLDATA_SIZE_LIMIT",
      "outputs": [
        {
          "internalType": "uint256",
          "name": "",
          "type": "uint256"
        }
      ],
      "stateMutability": "view",
      "type": "function"
    },
    {
      "inputs": [],
      "name": "FORWARDER_HUB_OVERHEAD",
      "outputs": [
        {
          "internalType": "uint256",
          "name": "",
          "type": "uint256"
        }
      ],
      "stateMutability": "view",
      "type": "function"
    },
    {
      "inputs": [],
      "name": "PAYMASTER_ACCEPTANCE_BUDGET",
      "outputs": [
        {
          "internalType": "uint256",
          "name": "",
          "type": "uint256"
        }
      ],
      "stateMutability": "view",
      "type": "function"
    },
    {
      "inputs": [],
      "name": "POST_RELAYED_CALL_GAS_LIMIT",
      "outputs": [
        {
          "internalType": "uint256",
          "name": "",
          "type": "uint256"
        }
      ],
      "stateMutability": "view",
      "type": "function"
    },
    {
      "inputs": [],
      "name": "PRE_RELAYED_CALL_GAS_LIMIT",
      "outputs": [
        {
          "internalType": "uint256",
          "name": "",
          "type": "uint256"
        }
      ],
      "stateMutability": "view",
      "type": "function"
    },
    {
      "inputs": [
        {
          "components": [
            {
              "components": [
                {
                  "internalType": "address",
                  "name": "from",
                  "type": "address"
                },
                {
                  "internalType": "address",
                  "name": "to",
                  "type": "address"
                },
                {
                  "internalType": "uint256",
                  "name": "value",
                  "type": "uint256"
                },
                {
                  "internalType": "uint256",
                  "name": "gas",
                  "type": "uint256"
                },
                {
                  "internalType": "uint256",
                  "name": "nonce",
                  "type": "uint256"
                },
                {
                  "internalType": "bytes",
                  "name": "data",
                  "type": "bytes"
                },
                {
                  "internalType": "uint256",
                  "name": "validUntil",
                  "type": "uint256"
                }
              ],
              "internalType": "struct IForwarder.ForwardRequest",
              "name": "request",
              "type": "tuple"
            },
            {
              "components": [
                {
                  "internalType": "uint256",
                  "name": "gasPrice",
                  "type": "uint256"
                },
                {
                  "internalType": "uint256",
                  "name": "pctRelayFee",
                  "type": "uint256"
                },
                {
                  "internalType": "uint256",
                  "name": "baseRelayFee",
                  "type": "uint256"
                },
                {
                  "internalType": "address",
                  "name": "relayWorker",
                  "type": "address"
                },
                {
                  "internalType": "address",
                  "name": "paymaster",
                  "type": "address"
                },
                {
                  "internalType": "address",
                  "name": "forwarder",
                  "type": "address"
                },
                {
                  "internalType": "bytes",
                  "name": "paymasterData",
                  "type": "bytes"
                },
                {
                  "internalType": "uint256",
                  "name": "clientId",
                  "type": "uint256"
                }
              ],
              "internalType": "struct GsnTypes.RelayData",
              "name": "relayData",
              "type": "tuple"
            }
          ],
          "internalType": "struct GsnTypes.RelayRequest",
          "name": "relayRequest",
          "type": "tuple"
        }
      ],
      "name": "_verifyForwarder",
      "outputs": [],
      "stateMutability": "view",
      "type": "function"
    },
    {
      "inputs": [],
      "name": "difficulty",
      "outputs": [
        {
          "internalType": "uint8",
          "name": "",
          "type": "uint8"
        }
      ],
      "stateMutability": "view",
      "type": "function"
    },
    {
      "inputs": [],
      "name": "getGasAndDataLimits",
      "outputs": [
        {
          "components": [
            {
              "internalType": "uint256",
              "name": "acceptanceBudget",
              "type": "uint256"
            },
            {
              "internalType": "uint256",
              "name": "preRelayedCallGasLimit",
              "type": "uint256"
            },
            {
              "internalType": "uint256",
              "name": "postRelayedCallGasLimit",
              "type": "uint256"
            },
            {
              "internalType": "uint256",
              "name": "calldataSizeLimit",
              "type": "uint256"
            }
          ],
          "internalType": "struct IPaymaster.GasAndDataLimits",
          "name": "limits",
          "type": "tuple"
        }
      ],
      "stateMutability": "view",
      "type": "function"
    },
    {
      "inputs": [],
      "name": "getHubAddr",
      "outputs": [
        {
          "internalType": "address",
          "name": "",
          "type": "address"
        }
      ],
      "stateMutability": "view",
      "type": "function"
    },
    {
      "inputs": [],
      "name": "getRelayHubDeposit",
      "outputs": [
        {
          "internalType": "uint256",
          "name": "",
          "type": "uint256"
        }
      ],
      "stateMutability": "view",
      "type": "function"
    },
    {
      "inputs": [],
      "name": "owner",
      "outputs": [
        {
          "internalType": "address",
          "name": "",
          "type": "address"
        }
      ],
      "stateMutability": "view",
      "type": "function"
    },
    {
      "inputs": [
        {
          "internalType": "bytes",
          "name": "context",
          "type": "bytes"
        },
        {
          "internalType": "bool",
          "name": "success",
          "type": "bool"
        },
        {
          "internalType": "uint256",
          "name": "gasUseWithoutPost",
          "type": "uint256"
        },
        {
          "components": [
            {
              "internalType": "uint256",
              "name": "gasPrice",
              "type": "uint256"
            },
            {
              "internalType": "uint256",
              "name": "pctRelayFee",
              "type": "uint256"
            },
            {
              "internalType": "uint256",
              "name": "baseRelayFee",
              "type": "uint256"
            },
            {
              "internalType": "address",
              "name": "relayWorker",
              "type": "address"
            },
            {
              "internalType": "address",
              "name": "paymaster",
              "type": "address"
            },
            {
              "internalType": "address",
              "name": "forwarder",
              "type": "address"
            },
            {
              "internalType": "bytes",
              "name": "paymasterData",
              "type": "bytes"
            },
            {
              "internalType": "uint256",
              "name": "clientId",
              "type": "uint256"
            }
          ],
          "internalType": "struct GsnTypes.RelayData",
          "name": "relayData",
          "type": "tuple"
        }
      ],
      "name": "postRelayedCall",
      "outputs": [],
      "stateMutability": "nonpayable",
      "type": "function"
    },
    {
      "inputs": [
        {
          "components": [
            {
              "components": [
                {
                  "internalType": "address",
                  "name": "from",
                  "type": "address"
                },
                {
                  "internalType": "address",
                  "name": "to",
                  "type": "address"
                },
                {
                  "internalType": "uint256",
                  "name": "value",
                  "type": "uint256"
                },
                {
                  "internalType": "uint256",
                  "name": "gas",
                  "type": "uint256"
                },
                {
                  "internalType": "uint256",
                  "name": "nonce",
                  "type": "uint256"
                },
                {
                  "internalType": "bytes",
                  "name": "data",
                  "type": "bytes"
                },
                {
                  "internalType": "uint256",
                  "name": "validUntil",
                  "type": "uint256"
                }
              ],
              "internalType": "struct IForwarder.ForwardRequest",
              "name": "request",
              "type": "tuple"
            },
            {
              "components": [
                {
                  "internalType": "uint256",
                  "name": "gasPrice",
                  "type": "uint256"
                },
                {
                  "internalType": "uint256",
                  "name": "pctRelayFee",
                  "type": "uint256"
                },
                {
                  "internalType": "uint256",
                  "name": "baseRelayFee",
                  "type": "uint256"
                },
                {
                  "internalType": "address",
                  "name": "relayWorker",
                  "type": "address"
                },
                {
                  "internalType": "address",
                  "name": "paymaster",
                  "type": "address"
                },
                {
                  "internalType": "address",
                  "name": "forwarder",
                  "type": "address"
                },
                {
                  "internalType": "bytes",
                  "name": "paymasterData",
                  "type": "bytes"
                },
                {
                  "internalType": "uint256",
                  "name": "clientId",
                  "type": "uint256"
                }
              ],
              "internalType": "struct GsnTypes.RelayData",
              "name": "relayData",
              "type": "tuple"
            }
          ],
          "internalType": "struct GsnTypes.RelayRequest",
          "name": "relayRequest",
          "type": "tuple"
        },
        {
          "internalType": "bytes",
          "name": "signature",
          "type": "bytes"
        },
        {
          "internalType": "bytes",
          "name": "approvalData",
          "type": "bytes"
        },
        {
          "internalType": "uint256",
          "name": "maxPossibleGas",
          "type": "uint256"
        }
      ],
      "name": "preRelayedCall",
      "outputs": [
        {
          "internalType": "bytes",
          "name": "",
          "type": "bytes"
        },
        {
          "internalType": "bool",
          "name": "revertOnRecipientRevert",
          "type": "bool"
        }
      ],
      "stateMutability": "nonpayable",
      "type": "function"
    },
    {
      "inputs": [],
      "name": "renounceOwnership",
      "outputs": [],
      "stateMutability": "nonpayable",
      "type": "function"
    },
    {
      "inputs": [
        {
          "internalType": "contract IRelayHub",
          "name": "hub",
          "type": "address"
        }
      ],
      "name": "setRelayHub",
      "outputs": [],
      "stateMutability": "nonpayable",
      "type": "function"
    },
    {
      "inputs": [
        {
          "internalType": "contract IForwarder",
          "name": "forwarder",
          "type": "address"
        }
      ],
      "name": "setTrustedForwarder",
      "outputs": [],
      "stateMutability": "nonpayable",
      "type": "function"
    },
    {
      "inputs": [
        {
          "internalType": "address",
          "name": "newOwner",
          "type": "address"
        }
      ],
      "name": "transferOwnership",
      "outputs": [],
      "stateMutability": "nonpayable",
      "type": "function"
    },
    {
      "inputs": [],
      "name": "trustedForwarder",
      "outputs": [
        {
          "internalType": "contract IForwarder",
          "name": "",
          "type": "address"
        }
      ],
      "stateMutability": "view",
      "type": "function"
    },
    {
      "inputs": [],
      "name": "versionPaymaster",
      "outputs": [
        {
          "internalType": "string",
          "name": "",
          "type": "string"
        }
      ],
      "stateMutability": "view",
      "type": "function"
    },
    {
      "inputs": [
        {
          "internalType": "uint256",
          "name": "amount",
          "type": "uint256"
        },
        {
          "internalType": "address payable",
          "name": "target",
          "type": "address"
        }
      ],
      "name": "withdrawRelayHubDepositTo",
      "outputs": [],
      "stateMutability": "nonpayable",
      "type": "function"
    },
    {
      "stateMutability": "payable",
      "type": "receive"
    }
  ],
  "transactionHash": "0x5d5b5540b7bc2695b90ed509023ce12f48b74c8e24d408ab2182ebc94586f000",
  "args": [
    15
  ],
  "solcInputHash": "bb116571a205ccf118c376b0b01bd7df",
  "bytecode": "0x60806040523480156200001157600080fd5b50604051620022cb380380620022cb833981810160405281019062000037919062000128565b6000620000496200010960201b60201c565b9050806000806101000a81548173ffffffffffffffffffffffffffffffffffffffff021916908373ffffffffffffffffffffffffffffffffffffffff1602179055508073ffffffffffffffffffffffffffffffffffffffff16600073ffffffffffffffffffffffffffffffffffffffff167f8be0079c531659141344cd1fd0a4f28419497f9722a3daafe3b4186f6b6457e060405160405180910390a35080600260146101000a81548160ff021916908360ff160217905550506200017b565b600033905090565b600081519050620001228162000161565b92915050565b6000602082840312156200013b57600080fd5b60006200014b8482850162000111565b91505092915050565b600060ff82169050919050565b6200016c8162000154565b81146200017857600080fd5b50565b612140806200018b6000396000f3fe6080604052600436106101225760003560e01c80638da5cb5b116100a0578063bbdaa3c911610064578063bbdaa3c9146104ca578063da742228146104f5578063df463a661461051e578063f2fde38b14610549578063f9c002f71461057257610249565b80638da5cb5b146103f5578063921276ea14610420578063a5dcd07b1461044b578063b039a88f14610474578063b90b41cf1461049f57610249565b8063715018a6116100e7578063715018a61461033657806374e861d61461034d57806376fa01c3146103785780637bb05264146103a15780637da0a877146103ca57610249565b8062be5dd41461024e57806319cae4621461028c5780632afe31c1146102b75780632d14c4b7146102e25780635c5e3db11461030b57610249565b3661024957600073ffffffffffffffffffffffffffffffffffffffff16600160009054906101000a900473ffffffffffffffffffffffffffffffffffffffff1673ffffffffffffffffffffffffffffffffffffffff1614156101b9576040517f08c379a00000000000000000000000000000000000000000000000000000000081526004016101b090611cb2565b60405180910390fd5b600160009054906101000a900473ffffffffffffffffffffffffffffffffffffffff1673ffffffffffffffffffffffffffffffffffffffff1663aa67c91934306040518363ffffffff1660e01b81526004016102159190611b93565b6000604051808303818588803b15801561022e57600080fd5b505af1158015610242573d6000803e3d6000fd5b5050505050005b600080fd5b34801561025a57600080fd5b5061027560048036038101906102709190611633565b61059d565b604051610283929190611be5565b60405180910390f35b34801561029857600080fd5b506102a1610802565b6040516102ae9190611df1565b60405180910390f35b3480156102c357600080fd5b506102cc610815565b6040516102d99190611dad565b60405180910390f35b3480156102ee57600080fd5b506103096004803603810190610304919061170f565b6108c7565b005b34801561031757600080fd5b50610320610a08565b60405161032d9190611dad565b60405180910390f35b34801561034257600080fd5b5061034b610a0e565b005b34801561035957600080fd5b50610362610b7b565b60405161036f9190611b78565b60405180910390f35b34801561038457600080fd5b5061039f600480360381019061039a9190611508565b610ba5565b005b3480156103ad57600080fd5b506103c860048036038101906103c391906115c9565b610bac565b005b3480156103d657600080fd5b506103df610c9f565b6040516103ec9190611c15565b60405180910390f35b34801561040157600080fd5b5061040a610cc5565b6040516104179190611b78565b60405180910390f35b34801561042c57600080fd5b50610435610cee565b6040516104429190611c30565b60405180910390f35b34801561045757600080fd5b50610472600480360381019061046d91906115f2565b610d0e565b005b34801561048057600080fd5b50610489610dcb565b6040516104969190611d92565b60405180910390f35b3480156104ab57600080fd5b506104b4610e08565b6040516104c19190611dad565b60405180910390f35b3480156104d657600080fd5b506104df610e0e565b6040516104ec9190611dad565b60405180910390f35b34801561050157600080fd5b5061051c600480360381019061051791906115a0565b610e15565b005b34801561052a57600080fd5b50610533610f08565b6040516105409190611dad565b60405180910390f35b34801561055557600080fd5b50610570600480360381019061056b919061147a565b610f13565b005b34801561057e57600080fd5b50610587611105565b6040516105949190611dad565b60405180910390f35b606060006105a9610b7b565b73ffffffffffffffffffffffffffffffffffffffff163373ffffffffffffffffffffffffffffffffffffffff1614610616576040517f08c379a000000000000000000000000000000000000000000000000000000000815260040161060d90611d32565b60405180910390fd5b6040858590501461065c576040517f08c379a000000000000000000000000000000000000000000000000000000000815260040161065390611d12565b60405180910390fd5b600088806020019061066e9190611e87565b8060c0019061067d9190611e0c565b9050146106bf576040517f08c379a00000000000000000000000000000000000000000000000000000000081526004016106b690611d72565b60405180910390fd5b60008086868101906106d191906114cc565b9150915060008a80600001906106e79190611e63565b60000160208101906106f9919061147a565b8b80600001906107099190611e63565b608001358360405160200161072093929190611bae565b60405160208183030381529060405280519060200120905080831461077a576040517f08c379a000000000000000000000000000000000000000000000000000000000815260040161077190611c92565b60405180910390fd5b600260149054906101000a900460ff1660ff166101000361ffff166001901b8360001c106107dd576040517f08c379a00000000000000000000000000000000000000000000000000000000081526004016107d490611d52565b60405180910390fd5b6000604051806020016040528060008152509094509450505050965096945050505050565b600260149054906101000a900460ff1681565b6000600160009054906101000a900473ffffffffffffffffffffffffffffffffffffffff1673ffffffffffffffffffffffffffffffffffffffff166370a08231306040518263ffffffff1660e01b81526004016108729190611b93565b60206040518083038186803b15801561088a57600080fd5b505afa15801561089e573d6000803e3d6000fd5b505050506040513d601f19601f820116820180604052508101906108c291906116e6565b905090565b6108cf61110c565b73ffffffffffffffffffffffffffffffffffffffff166108ed610cc5565b73ffffffffffffffffffffffffffffffffffffffff1614610976576040517f08c379a00000000000000000000000000000000000000000000000000000000081526004018080602001828103825260208152602001807f4f776e61626c653a2063616c6c6572206973206e6f7420746865206f776e657281525060200191505060405180910390fd5b600160009054906101000a900473ffffffffffffffffffffffffffffffffffffffff1673ffffffffffffffffffffffffffffffffffffffff1662f714ce83836040518363ffffffff1660e01b81526004016109d2929190611dc8565b600060405180830381600087803b1580156109ec57600080fd5b505af1158015610a00573d6000803e3d6000fd5b505050505050565b61290481565b610a1661110c565b73ffffffffffffffffffffffffffffffffffffffff16610a34610cc5565b73ffffffffffffffffffffffffffffffffffffffff1614610abd576040517f08c379a00000000000000000000000000000000000000000000000000000000081526004018080602001828103825260208152602001807f4f776e61626c653a2063616c6c6572206973206e6f7420746865206f776e657281525060200191505060405180910390fd5b600073ffffffffffffffffffffffffffffffffffffffff1660008054906101000a900473ffffffffffffffffffffffffffffffffffffffff1673ffffffffffffffffffffffffffffffffffffffff167f8be0079c531659141344cd1fd0a4f28419497f9722a3daafe3b4186f6b6457e060405160405180910390a360008060006101000a81548173ffffffffffffffffffffffffffffffffffffffff021916908373ffffffffffffffffffffffffffffffffffffffff160217905550565b6000600160009054906101000a900473ffffffffffffffffffffffffffffffffffffffff16905090565b5050505050565b610bb461110c565b73ffffffffffffffffffffffffffffffffffffffff16610bd2610cc5565b73ffffffffffffffffffffffffffffffffffffffff1614610c5b576040517f08c379a00000000000000000000000000000000000000000000000000000000081526004018080602001828103825260208152602001807f4f776e61626c653a2063616c6c6572206973206e6f7420746865206f776e657281525060200191505060405180910390fd5b80600160006101000a81548173ffffffffffffffffffffffffffffffffffffffff021916908373ffffffffffffffffffffffffffffffffffffffff16021790555050565b600260009054906101000a900473ffffffffffffffffffffffffffffffffffffffff1681565b60008060009054906101000a900473ffffffffffffffffffffffffffffffffffffffff16905090565b60606040518060600160405280602181526020016120c460219139905090565b808060200190610d1e9190611e87565b60a0016020810190610d30919061147a565b73ffffffffffffffffffffffffffffffffffffffff16600260009054906101000a900473ffffffffffffffffffffffffffffffffffffffff1673ffffffffffffffffffffffffffffffffffffffff1614610dbf576040517f08c379a0000000000000000000000000000000000000000000000000000000008152600401610db690611cd2565b60405180910390fd5b610dc881611114565b50565b610dd3611314565b604051806080016040528061c350620186a0018152602001620186a081526020016201adb08152602001612904815250905090565b61c35081565b6201adb081565b610e1d61110c565b73ffffffffffffffffffffffffffffffffffffffff16610e3b610cc5565b73ffffffffffffffffffffffffffffffffffffffff1614610ec4576040517f08c379a00000000000000000000000000000000000000000000000000000000081526004018080602001828103825260208152602001807f4f776e61626c653a2063616c6c6572206973206e6f7420746865206f776e657281525060200191505060405180910390fd5b80600260006101000a81548173ffffffffffffffffffffffffffffffffffffffff021916908373ffffffffffffffffffffffffffffffffffffffff16021790555050565b61c350620186a00181565b610f1b61110c565b73ffffffffffffffffffffffffffffffffffffffff16610f39610cc5565b73ffffffffffffffffffffffffffffffffffffffff1614610fc2576040517f08c379a00000000000000000000000000000000000000000000000000000000081526004018080602001828103825260208152602001807f4f776e61626c653a2063616c6c6572206973206e6f7420746865206f776e657281525060200191505060405180910390fd5b600073ffffffffffffffffffffffffffffffffffffffff168173ffffffffffffffffffffffffffffffffffffffff161415611048576040517f08c379a00000000000000000000000000000000000000000000000000000000081526004018080602001828103825260268152602001806120e56026913960400191505060405180910390fd5b8073ffffffffffffffffffffffffffffffffffffffff1660008054906101000a900473ffffffffffffffffffffffffffffffffffffffff1673ffffffffffffffffffffffffffffffffffffffff167f8be0079c531659141344cd1fd0a4f28419497f9722a3daafe3b4186f6b6457e060405160405180910390a3806000806101000a81548173ffffffffffffffffffffffffffffffffffffffff021916908373ffffffffffffffffffffffffffffffffffffffff16021790555050565b620186a081565b600033905090565b6000808280600001906111279190611e63565b6020016020810190611139919061147a565b73ffffffffffffffffffffffffffffffffffffffff1663572b6c0560e01b8480602001906111679190611e87565b60a0016020810190611179919061147a565b6040516024016111899190611b78565b604051602081830303815290604052907bffffffffffffffffffffffffffffffffffffffffffffffffffffffff19166020820180517bffffffffffffffffffffffffffffffffffffffffffffffffffffffff83818316178352505050506040516111f39190611b61565b600060405180830381855afa9150503d806000811461122e576040519150601f19603f3d011682016040523d82523d6000602084013e611233565b606091505b509150915081611278576040517f08c379a000000000000000000000000000000000000000000000000000000000815260040161126f90611c72565b60405180910390fd5b60208151146112bc576040517f08c379a00000000000000000000000000000000000000000000000000000000081526004016112b390611cf2565b60405180910390fd5b808060200190518101906112d091906114a3565b61130f576040517f08c379a000000000000000000000000000000000000000000000000000000000815260040161130690611c52565b60405180910390fd5b505050565b6040518060800160405280600081526020016000815260200160008152602001600081525090565b60008135905061134b81612022565b92915050565b60008135905061136081612039565b92915050565b60008135905061137581612050565b92915050565b60008151905061138a81612050565b92915050565b60008135905061139f81612067565b92915050565b60008083601f8401126113b757600080fd5b8235905067ffffffffffffffff8111156113d057600080fd5b6020830191508360018202830111156113e857600080fd5b9250929050565b6000813590506113fe8161207e565b92915050565b60008135905061141381612095565b92915050565b6000610100828403121561142c57600080fd5b81905092915050565b60006040828403121561144757600080fd5b81905092915050565b60008135905061145f816120ac565b92915050565b600081519050611474816120ac565b92915050565b60006020828403121561148c57600080fd5b600061149a8482850161133c565b91505092915050565b6000602082840312156114b557600080fd5b60006114c38482850161137b565b91505092915050565b600080604083850312156114df57600080fd5b60006114ed85828601611390565b92505060206114fe85828601611450565b9150509250929050565b60008060008060006080868803121561152057600080fd5b600086013567ffffffffffffffff81111561153a57600080fd5b611546888289016113a5565b9550955050602061155988828901611366565b935050604061156a88828901611450565b925050606086013567ffffffffffffffff81111561158757600080fd5b61159388828901611419565b9150509295509295909350565b6000602082840312156115b257600080fd5b60006115c0848285016113ef565b91505092915050565b6000602082840312156115db57600080fd5b60006115e984828501611404565b91505092915050565b60006020828403121561160457600080fd5b600082013567ffffffffffffffff81111561161e57600080fd5b61162a84828501611435565b91505092915050565b6000806000806000806080878903121561164c57600080fd5b600087013567ffffffffffffffff81111561166657600080fd5b61167289828a01611435565b965050602087013567ffffffffffffffff81111561168f57600080fd5b61169b89828a016113a5565b9550955050604087013567ffffffffffffffff8111156116ba57600080fd5b6116c689828a016113a5565b935093505060606116d989828a01611450565b9150509295509295509295565b6000602082840312156116f857600080fd5b600061170684828501611465565b91505092915050565b6000806040838503121561172257600080fd5b600061173085828601611450565b925050602061174185828601611351565b9150509250929050565b61175481611f84565b82525050565b61176381611f01565b82525050565b61177281611eef565b82525050565b61178181611f13565b82525050565b600061179282611eac565b61179c8185611ec2565b93506117ac818560208601611fde565b6117b581612011565b840191505092915050565b60006117cb82611eac565b6117d58185611ed3565b93506117e5818560208601611fde565b80840191505092915050565b6117fa81611f96565b82525050565b600061180b82611eb7565b6118158185611ede565b9350611825818560208601611fde565b61182e81612011565b840191505092915050565b6000611846601f83611ede565b91507f696e76616c696420666f7277617264657220666f7220726563697069656e74006000830152602082019050919050565b6000611886601c83611ede565b91507f697354727573746564466f727761726465723a207265766572746564000000006000830152602082019050919050565b60006118c6600a83611ede565b91507f77726f6e672068617368000000000000000000000000000000000000000000006000830152602082019050919050565b6000611906601983611ede565b91507f72656c6179206875622061646472657373206e6f7420736574000000000000006000830152602082019050919050565b6000611946601883611ede565b91507f466f72776172646572206973206e6f74207472757374656400000000000000006000830152602082019050919050565b6000611986602083611ede565b91507f697354727573746564466f727761726465723a2062616420726573706f6e73656000830152602082019050919050565b60006119c6602f83611ede565b91507f617070726f76616c446174613a20696e76616c6964206c656e67746820666f7260008301527f206861736820616e64206e6f6e636500000000000000000000000000000000006020830152604082019050919050565b6000611a2c601e83611ede565b91507f63616e206f6e6c792062652063616c6c65642062792052656c617948756200006000830152602082019050919050565b6000611a6c601283611ede565b91507f646966666963756c7479206e6f74206d657400000000000000000000000000006000830152602082019050919050565b6000611aac601d83611ede565b91507f7061796d6173746572446174613a20696e76616c6964206c656e6774680000006000830152602082019050919050565b608082016000820151611af56000850182611b34565b506020820151611b086020850182611b34565b506040820151611b1b6040850182611b34565b506060820151611b2e6060850182611b34565b50505050565b611b3d81611f6d565b82525050565b611b4c81611f6d565b82525050565b611b5b81611f77565b82525050565b6000611b6d82846117c0565b915081905092915050565b6000602082019050611b8d6000830184611769565b92915050565b6000602082019050611ba8600083018461174b565b92915050565b6000606082019050611bc36000830186611769565b611bd06020830185611b43565b611bdd6040830184611b43565b949350505050565b60006040820190508181036000830152611bff8185611787565b9050611c0e6020830184611778565b9392505050565b6000602082019050611c2a60008301846117f1565b92915050565b60006020820190508181036000830152611c4a8184611800565b905092915050565b60006020820190508181036000830152611c6b81611839565b9050919050565b60006020820190508181036000830152611c8b81611879565b9050919050565b60006020820190508181036000830152611cab816118b9565b9050919050565b60006020820190508181036000830152611ccb816118f9565b9050919050565b60006020820190508181036000830152611ceb81611939565b9050919050565b60006020820190508181036000830152611d0b81611979565b9050919050565b60006020820190508181036000830152611d2b816119b9565b9050919050565b60006020820190508181036000830152611d4b81611a1f565b9050919050565b60006020820190508181036000830152611d6b81611a5f565b9050919050565b60006020820190508181036000830152611d8b81611a9f565b9050919050565b6000608082019050611da76000830184611adf565b92915050565b6000602082019050611dc26000830184611b43565b92915050565b6000604082019050611ddd6000830185611b43565b611dea602083018461175a565b9392505050565b6000602082019050611e066000830184611b52565b92915050565b60008083356001602003843603038112611e2557600080fd5b80840192508235915067ffffffffffffffff821115611e4357600080fd5b602083019250600182023603831315611e5b57600080fd5b509250929050565b60008235600160e003833603038112611e7b57600080fd5b80830191505092915050565b60008235600161010003833603038112611ea057600080fd5b80830191505092915050565b600081519050919050565b600081519050919050565b600082825260208201905092915050565b600081905092915050565b600082825260208201905092915050565b6000611efa82611f4d565b9050919050565b6000611f0c82611f4d565b9050919050565b60008115159050919050565b6000819050919050565b6000611f3482611eef565b9050919050565b6000611f4682611eef565b9050919050565b600073ffffffffffffffffffffffffffffffffffffffff82169050919050565b6000819050919050565b600060ff82169050919050565b6000611f8f82611fba565b9050919050565b6000611fa182611fa8565b9050919050565b6000611fb382611f4d565b9050919050565b6000611fc582611fcc565b9050919050565b6000611fd782611f4d565b9050919050565b60005b83811015611ffc578082015181840152602081019050611fe1565b8381111561200b576000848401525b50505050565b6000601f19601f8301169050919050565b61202b81611eef565b811461203657600080fd5b50565b61204281611f01565b811461204d57600080fd5b50565b61205981611f13565b811461206457600080fd5b50565b61207081611f1f565b811461207b57600080fd5b50565b61208781611f29565b811461209257600080fd5b50565b61209e81611f3b565b81146120a957600080fd5b50565b6120b581611f6d565b81146120c057600080fd5b5056fe322e322e332b6f70656e67736e2e68617368636173682e697061796d61737465724f776e61626c653a206e6577206f776e657220697320746865207a65726f2061646472657373a26469706673582212205fd3114ed672b9ae8eabc9a18c9018e89312d6d45ea74fe8b4896d075799d93f64736f6c63430007060033",
  "devdoc": {
    "kind": "dev",
    "methods": {
      "owner()": {
        "details": "Returns the address of the current owner."
      },
      "postRelayedCall(bytes,bool,uint256,(uint256,uint256,uint256,address,address,address,bytes,uint256))": {
        "params": {
          "context": "- the call context, as returned by the preRelayedCall",
          "gasUseWithoutPost": "- the actual amount of gas used by the entire transaction, EXCEPT        the gas used by the postRelayedCall itself.",
          "relayData": "- the relay params of the request. can be used by relayHub.calculateCharge() Revert in this functions causes a revert of the client's relayed call (and preRelayedCall(), but the Paymaster is still committed to pay the relay for the entire transaction.",
          "success": "- true if the relayed call succeeded, false if it reverted"
        }
      },
      "preRelayedCall(((address,address,uint256,uint256,uint256,bytes,uint256),(uint256,uint256,uint256,address,address,address,bytes,uint256)),bytes,bytes,uint256)": {
        "params": {
          "approvalData": "- extra dapp-specific data (e.g. signature from trusted party)",
          "maxPossibleGas": "- based on values returned from {@link getGasAndDataLimits},         the RelayHub will calculate the maximum possible amount of gas the user may be charged for.         In order to convert this value to wei, the Paymaster has to call \"relayHub.calculateCharge()\"  return:      a context to be passed to postRelayedCall      rejectOnRecipientRevert - TRUE if paymaster want to reject the TX if the recipient reverts.          FALSE means that rejects by the recipient will be completed on chain, and paid by the paymaster.          (note that in the latter case, the preRelayedCall and postRelayedCall are not reverted).",
          "relayRequest": "- the full relay request structure",
          "signature": "- user's EIP712-compatible signature of the {@link relayRequest}.              Note that in most cases the paymaster shouldn't try use it at all. It is always checked              by the forwarder immediately after preRelayedCall returns."
        }
      },
      "renounceOwnership()": {
        "details": "Leaves the contract without owner. It will not be possible to call `onlyOwner` functions anymore. Can only be called by the current owner. NOTE: Renouncing ownership will leave the contract without an owner, thereby removing any functionality that is only available to the owner."
      },
      "transferOwnership(address)": {
        "details": "Transfers ownership of the contract to a new account (`newOwner`). Can only be called by the current owner."
      }
    },
    "version": 1
  },
  "userdoc": {
    "kind": "user",
    "methods": {
      "getGasAndDataLimits()": {
        "notice": "Return the Gas Limits and msg.data max size constants used by the Paymaster."
      },
      "getHubAddr()": {
        "notice": "return the relayHub of this contract."
      },
      "getRelayHubDeposit()": {
        "notice": "check current deposit on relay hub."
      },
      "postRelayedCall(bytes,bool,uint256,(uint256,uint256,uint256,address,address,address,bytes,uint256))": {
        "notice": "This method is called after the actual relayed function call. It may be used to record the transaction (e.g. charge the caller by some contract logic) for this call. MUST be protected with relayHubOnly() in case it modifies state."
      },
      "preRelayedCall(((address,address,uint256,uint256,uint256,bytes,uint256),(uint256,uint256,uint256,address,address,address,bytes,uint256)),bytes,bytes,uint256)": {
        "notice": "Called by Relay (and RelayHub), to validate if the paymaster agrees to pay for this call. MUST be protected with relayHubOnly() in case it modifies state. The Paymaster rejects by the following \"revert\" operations  - preRelayedCall() method reverts  - the forwarder reverts because of nonce or signature error  - the paymaster returned \"rejectOnRecipientRevert\", and the recipient contract reverted. In any of the above cases, all paymaster calls (and recipient call) are reverted. In any other case, the paymaster agrees to pay for the gas cost of the transaction (note  that this includes also postRelayedCall revert) The rejectOnRecipientRevert flag means the Paymaster \"delegate\" the rejection to the recipient  code.  It also means the Paymaster trust the recipient to reject fast: both preRelayedCall,  forwarder check and receipient checks must fit into the GasLimits.acceptanceBudget,  otherwise the TX is paid by the Paymaster."
      },
      "withdrawRelayHubDepositTo(uint256,address)": {
        "notice": "withdraw deposit from relayHub"
      }
    },
    "notice": "A paymaster that requires some calculation from the client before accepting a request. This comes to prevent attack by anonymous clients. Usage: - Create an instance of the HashcashPaymaster, and give it a proper difficulty level. - When creating a RelayProvider, make sure to use the createHashcashAsyncApproval() with   the same difficulty level. The \"difficulty\" level is the number of zero bits at the generated hash. a value of 15 requires roughly 32000 iterations and take ~0.5 second on a normal PC",
    "version": 1
  },
  "storageLayout": {
    "storage": [
      {
        "astId": 1558,
        "contract": "@opengsn/paymasters/contracts/HashcashPaymaster.sol:HashcashPaymaster",
        "label": "_owner",
        "offset": 0,
        "slot": "0",
        "type": "t_address"
      },
      {
        "astId": 15,
        "contract": "@opengsn/paymasters/contracts/HashcashPaymaster.sol:HashcashPaymaster",
        "label": "relayHub",
        "offset": 0,
        "slot": "1",
        "type": "t_contract(IRelayHub)611"
      },
      {
        "astId": 18,
        "contract": "@opengsn/paymasters/contracts/HashcashPaymaster.sol:HashcashPaymaster",
        "label": "trustedForwarder",
        "offset": 0,
        "slot": "2",
        "type": "t_contract(IForwarder)273"
      },
      {
        "astId": 1439,
        "contract": "@opengsn/paymasters/contracts/HashcashPaymaster.sol:HashcashPaymaster",
        "label": "difficulty",
        "offset": 20,
        "slot": "2",
        "type": "t_uint8"
      }
    ],
    "types": {
      "t_address": {
        "encoding": "inplace",
        "label": "address",
        "numberOfBytes": "20"
      },
      "t_contract(IForwarder)273": {
        "encoding": "inplace",
        "label": "contract IForwarder",
        "numberOfBytes": "20"
      },
      "t_contract(IRelayHub)611": {
        "encoding": "inplace",
        "label": "contract IRelayHub",
        "numberOfBytes": "20"
      },
      "t_uint8": {
        "encoding": "inplace",
        "label": "uint8",
        "numberOfBytes": "1"
      }
    }
  }
}