{
  "address": "0x573EAF634a19Cc82354877FB603e5696D63AbBE1",
  "abi": [
    {
      "inputs": [
        {
          "internalType": "address",
          "name": "forwarder",
          "type": "address"
        }
      ],
      "stateMutability": "nonpayable",
      "type": "constructor"
    },
    {
      "anonymous": false,
      "inputs": [
        {
          "indexed": false,
          "internalType": "address",
          "name": "previousHolder",
          "type": "address"
        },
        {
          "indexed": false,
          "internalType": "address",
          "name": "currentHolder",
          "type": "address"
        }
      ],
      "name": "FlagCaptured",
      "type": "event"
    },
    {
      "anonymous": false,
      "inputs": [
        {
          "indexed": true,
          "internalType": "address",
          "name": "previousOwner",
          "type": "address"
        },
        {
          "indexed": true,
          "internalType": "address",
          "name": "newOwner",
          "type": "address"
        }
      ],
      "name": "OwnershipTransferred",
      "type": "event"
    },
    {
      "inputs": [],
      "name": "captureTheFlag",
      "outputs": [],
      "stateMutability": "nonpayable",
      "type": "function"
    },
    {
      "inputs": [],
      "name": "currentHolder",
      "outputs": [
        {
          "internalType": "address",
          "name": "",
          "type": "address"
        }
      ],
      "stateMutability": "view",
      "type": "function"
    },
    {
      "inputs": [],
      "name": "getTrustedForwarder",
      "outputs": [
        {
          "internalType": "address",
          "name": "forwarder",
          "type": "address"
        }
      ],
      "stateMutability": "view",
      "type": "function"
    },
    {
      "inputs": [
        {
          "internalType": "address",
          "name": "forwarder",
          "type": "address"
        }
      ],
      "name": "isTrustedForwarder",
      "outputs": [
        {
          "internalType": "bool",
          "name": "",
          "type": "bool"
        }
      ],
      "stateMutability": "view",
      "type": "function"
    },
    {
      "inputs": [],
      "name": "owner",
      "outputs": [
        {
          "internalType": "address",
          "name": "",
          "type": "address"
        }
      ],
      "stateMutability": "view",
      "type": "function"
    },
    {
      "inputs": [],
      "name": "renounceOwnership",
      "outputs": [],
      "stateMutability": "nonpayable",
      "type": "function"
    },
    {
      "inputs": [
        {
          "internalType": "address",
          "name": "newOwner",
          "type": "address"
        }
      ],
      "name": "transferOwnership",
      "outputs": [],
      "stateMutability": "nonpayable",
      "type": "function"
    },
    {
      "inputs": [],
      "name": "versionRecipient",
      "outputs": [
        {
          "internalType": "string",
          "name": "",
          "type": "string"
        }
      ],
      "stateMutability": "view",
      "type": "function"
    }
  ],
  "transactionHash": "0xe7c8a96d179efe9c2e284aeb6d724bd52f63e677911e94a81092e0c0c4f1b9ec",
  "args": [
    "0xaEEE59D02E121185cFFe9710608B4e0aEB9bE072"
  ],
  "solcInputHash": "b4d234ca5f86be2228356d3199f58bf3",
  "bytecode": "0x60806040526000600260006101000a81548173ffffffffffffffffffffffffffffffffffffffff021916908373ffffffffffffffffffffffffffffffffffffffff1602179055506040518060400160405280600581526020017f322e322e300000000000000000000000000000000000000000000000000000008152506003908051906020019062000093929190620002bf565b50348015620000a157600080fd5b5060405162000e0638038062000e068339818101604052810190620000c7919062000386565b620000e7620000db620000ff60201b60201c565b6200011b60201b60201c565b620000f881620001e160201b60201c565b5062000470565b6000620001166200022460201b620005111760201c565b905090565b6000600160009054906101000a900473ffffffffffffffffffffffffffffffffffffffff16905081600160006101000a81548173ffffffffffffffffffffffffffffffffffffffff021916908373ffffffffffffffffffffffffffffffffffffffff1602179055508173ffffffffffffffffffffffffffffffffffffffff168173ffffffffffffffffffffffffffffffffffffffff167f8be0079c531659141344cd1fd0a4f28419497f9722a3daafe3b4186f6b6457e060405160405180910390a35050565b806000806101000a81548173ffffffffffffffffffffffffffffffffffffffff021916908373ffffffffffffffffffffffffffffffffffffffff16021790555050565b6000601460003690501015801562000249575062000248336200026660201b60201c565b5b156200025f57601436033560601c905062000263565b3390505b90565b60008060009054906101000a900473ffffffffffffffffffffffffffffffffffffffff1673ffffffffffffffffffffffffffffffffffffffff168273ffffffffffffffffffffffffffffffffffffffff16149050919050565b828054620002cd90620003ec565b90600052602060002090601f016020900481019282620002f157600085556200033d565b82601f106200030c57805160ff19168380011785556200033d565b828001600101855582156200033d579182015b828111156200033c5782518255916020019190600101906200031f565b5b5090506200034c919062000350565b5090565b5b808211156200036b57600081600090555060010162000351565b5090565b600081519050620003808162000456565b92915050565b6000602082840312156200039f576200039e62000451565b5b6000620003af848285016200036f565b91505092915050565b6000620003c582620003cc565b9050919050565b600073ffffffffffffffffffffffffffffffffffffffff82169050919050565b600060028204905060018216806200040557607f821691505b602082108114156200041c576200041b62000422565b5b50919050565b7f4e487b7100000000000000000000000000000000000000000000000000000000600052602260045260246000fd5b600080fd5b6200046181620003b8565b81146200046d57600080fd5b50565b61098680620004806000396000f3fe608060405234801561001057600080fd5b50600436106100875760003560e01c8063715018a61161005b578063715018a6146101025780638da5cb5b1461010c578063ce1b815f1461012a578063f2fde38b1461014857610087565b80624225b81461008c578063239e26f2146100aa578063486ff0cd146100b4578063572b6c05146100d2575b600080fd5b610094610164565b6040516100a191906106fc565b60405180910390f35b6100b261018a565b005b6100bc610257565b6040516100c9919061075b565b60405180910390f35b6100ec60048036038101906100e79190610632565b6102e5565b6040516100f99190610740565b60405180910390f35b61010a61033e565b005b6101146103c6565b60405161012191906106fc565b60405180910390f35b6101326103f0565b60405161013f91906106fc565b60405180910390f35b610162600480360381019061015d9190610632565b610419565b005b600260009054906101000a900473ffffffffffffffffffffffffffffffffffffffff1681565b6000600260009054906101000a900473ffffffffffffffffffffffffffffffffffffffff1690506101b9610548565b600260006101000a81548173ffffffffffffffffffffffffffffffffffffffff021916908373ffffffffffffffffffffffffffffffffffffffff1602179055507facc718a11fbc93a22905740808767480f9efd07b1c0b0128095790cd1440048d81600260009054906101000a900473ffffffffffffffffffffffffffffffffffffffff1660405161024c929190610717565b60405180910390a150565b600380546102649061084a565b80601f01602080910402602001604051908101604052809291908181526020018280546102909061084a565b80156102dd5780601f106102b2576101008083540402835291602001916102dd565b820191906000526020600020905b8154815290600101906020018083116102c057829003601f168201915b505050505081565b60008060009054906101000a900473ffffffffffffffffffffffffffffffffffffffff1673ffffffffffffffffffffffffffffffffffffffff168273ffffffffffffffffffffffffffffffffffffffff16149050919050565b610346610548565b73ffffffffffffffffffffffffffffffffffffffff166103646103c6565b73ffffffffffffffffffffffffffffffffffffffff16146103ba576040517f08c379a00000000000000000000000000000000000000000000000000000000081526004016103b19061079d565b60405180910390fd5b6103c46000610557565b565b6000600160009054906101000a900473ffffffffffffffffffffffffffffffffffffffff16905090565b60008060009054906101000a900473ffffffffffffffffffffffffffffffffffffffff16905090565b610421610548565b73ffffffffffffffffffffffffffffffffffffffff1661043f6103c6565b73ffffffffffffffffffffffffffffffffffffffff1614610495576040517f08c379a000000000000000000000000000000000000000000000000000000000815260040161048c9061079d565b60405180910390fd5b600073ffffffffffffffffffffffffffffffffffffffff168173ffffffffffffffffffffffffffffffffffffffff161415610505576040517f08c379a00000000000000000000000000000000000000000000000000000000081526004016104fc9061077d565b60405180910390fd5b61050e81610557565b50565b6000601460003690501015801561052d575061052c336102e5565b5b1561054157601436033560601c9050610545565b3390505b90565b6000610552610511565b905090565b6000600160009054906101000a900473ffffffffffffffffffffffffffffffffffffffff16905081600160006101000a81548173ffffffffffffffffffffffffffffffffffffffff021916908373ffffffffffffffffffffffffffffffffffffffff1602179055508173ffffffffffffffffffffffffffffffffffffffff168173ffffffffffffffffffffffffffffffffffffffff167f8be0079c531659141344cd1fd0a4f28419497f9722a3daafe3b4186f6b6457e060405160405180910390a35050565b60008135905061062c81610939565b92915050565b600060208284031215610648576106476108ab565b5b60006106568482850161061d565b91505092915050565b610668816107d9565b82525050565b610677816107eb565b82525050565b6000610688826107bd565b61069281856107c8565b93506106a2818560208601610817565b6106ab816108b0565b840191505092915050565b60006106c36026836107c8565b91506106ce826108c1565b604082019050919050565b60006106e66020836107c8565b91506106f182610910565b602082019050919050565b6000602082019050610711600083018461065f565b92915050565b600060408201905061072c600083018561065f565b610739602083018461065f565b9392505050565b6000602082019050610755600083018461066e565b92915050565b60006020820190508181036000830152610775818461067d565b905092915050565b60006020820190508181036000830152610796816106b6565b9050919050565b600060208201905081810360008301526107b6816106d9565b9050919050565b600081519050919050565b600082825260208201905092915050565b60006107e4826107f7565b9050919050565b60008115159050919050565b600073ffffffffffffffffffffffffffffffffffffffff82169050919050565b60005b8381101561083557808201518184015260208101905061081a565b83811115610844576000848401525b50505050565b6000600282049050600182168061086257607f821691505b602082108114156108765761087561087c565b5b50919050565b7f4e487b7100000000000000000000000000000000000000000000000000000000600052602260045260246000fd5b600080fd5b6000601f19601f8301169050919050565b7f4f776e61626c653a206e6577206f776e657220697320746865207a65726f206160008201527f6464726573730000000000000000000000000000000000000000000000000000602082015250565b7f4f776e61626c653a2063616c6c6572206973206e6f7420746865206f776e6572600082015250565b610942816107d9565b811461094d57600080fd5b5056fea2646970667358221220bb852be832bf2d7214c21457e0426785ef18aa1a7a3b5b6b16f20abed379fdc164736f6c63430008070033",
  "devdoc": {
    "kind": "dev",
    "methods": {
      "getTrustedForwarder()": {
        "returns": {
          "forwarder": "The address of the Forwarder contract that is being used."
        }
      },
      "isTrustedForwarder(address)": {
        "params": {
          "forwarder": "The address of the Forwarder contract that is being used."
        },
        "returns": {
          "_0": "isTrustedForwarder `true` if the Forwarder is trusted to forward relayed transactions by this Recipient."
        }
      },
      "owner()": {
        "details": "Returns the address of the current owner."
      },
      "renounceOwnership()": {
        "details": "Leaves the contract without owner. It will not be possible to call `onlyOwner` functions anymore. Can only be called by the current owner. NOTE: Renouncing ownership will leave the contract without an owner, thereby removing any functionality that is only available to the owner."
      },
      "transferOwnership(address)": {
        "details": "Transfers ownership of the contract to a new account (`newOwner`). Can only be called by the current owner."
      }
    },
    "stateVariables": {
      "versionRecipient": {
        "return": "version The SemVer string of this Recipient's version.",
        "returns": {
          "_0": "version The SemVer string of this Recipient's version."
        }
      }
    },
    "version": 1
  },
  "userdoc": {
    "kind": "user",
    "methods": {
      "getTrustedForwarder()": {
        "notice": ":warning: **Warning** :warning: The Forwarder can have a full control over your Recipient. Only trust verified Forwarder.Method is not a required method to allow Recipients to trust multiple Forwarders. Not recommended yet."
      },
      "isTrustedForwarder(address)": {
        "notice": ":warning: **Warning** :warning: The Forwarder can have a full control over your Recipient. Only trust verified Forwarder."
      }
    },
    "version": 1
  },
  "storageLayout": {
    "storage": [
      {
        "astId": 7,
        "contract": "contracts/CaptureTheFlag.sol:CaptureTheFlag",
        "label": "_trustedForwarder",
        "offset": 0,
        "slot": "0",
        "type": "t_address"
      },
      {
        "astId": 140,
        "contract": "contracts/CaptureTheFlag.sol:CaptureTheFlag",
        "label": "_owner",
        "offset": 0,
        "slot": "1",
        "type": "t_address"
      },
      {
        "astId": 279,
        "contract": "contracts/CaptureTheFlag.sol:CaptureTheFlag",
        "label": "currentHolder",
        "offset": 0,
        "slot": "2",
        "type": "t_address"
      },
      {
        "astId": 311,
        "contract": "contracts/CaptureTheFlag.sol:CaptureTheFlag",
        "label": "versionRecipient",
        "offset": 0,
        "slot": "3",
        "type": "t_string_storage"
      }
    ],
    "types": {
      "t_address": {
        "encoding": "inplace",
        "label": "address",
        "numberOfBytes": "20"
      },
      "t_string_storage": {
        "encoding": "bytes",
        "label": "string",
        "numberOfBytes": "32"
      }
    }
  }
}