{
  "address": "0x6E4f6878d1188d281F79a8d06e1f52A5cF80b792",
  "abi": [
    {
      "inputs": [
        {
          "internalType": "address",
          "name": "forwarder",
          "type": "address"
        }
      ],
      "stateMutability": "nonpayable",
      "type": "constructor"
    },
    {
      "anonymous": false,
      "inputs": [
        {
          "indexed": false,
          "internalType": "address",
          "name": "previousHolder",
          "type": "address"
        },
        {
          "indexed": false,
          "internalType": "address",
          "name": "currentHolder",
          "type": "address"
        }
      ],
      "name": "FlagCaptured",
      "type": "event"
    },
    {
      "anonymous": false,
      "inputs": [
        {
          "indexed": true,
          "internalType": "address",
          "name": "previousOwner",
          "type": "address"
        },
        {
          "indexed": true,
          "internalType": "address",
          "name": "newOwner",
          "type": "address"
        }
      ],
      "name": "OwnershipTransferred",
      "type": "event"
    },
    {
      "inputs": [],
      "name": "captureTheFlag",
      "outputs": [],
      "stateMutability": "nonpayable",
      "type": "function"
    },
    {
      "inputs": [],
      "name": "currentHolder",
      "outputs": [
        {
          "internalType": "address",
          "name": "",
          "type": "address"
        }
      ],
      "stateMutability": "view",
      "type": "function"
    },
    {
      "inputs": [],
      "name": "getTrustedForwarder",
      "outputs": [
        {
          "internalType": "address",
          "name": "forwarder",
          "type": "address"
        }
      ],
      "stateMutability": "view",
      "type": "function"
    },
    {
      "inputs": [
        {
          "internalType": "address",
          "name": "forwarder",
          "type": "address"
        }
      ],
      "name": "isTrustedForwarder",
      "outputs": [
        {
          "internalType": "bool",
          "name": "",
          "type": "bool"
        }
      ],
      "stateMutability": "view",
      "type": "function"
    },
    {
      "inputs": [],
      "name": "owner",
      "outputs": [
        {
          "internalType": "address",
          "name": "",
          "type": "address"
        }
      ],
      "stateMutability": "view",
      "type": "function"
    },
    {
      "inputs": [],
      "name": "renounceOwnership",
      "outputs": [],
      "stateMutability": "nonpayable",
      "type": "function"
    },
    {
      "inputs": [
        {
          "internalType": "address",
          "name": "newOwner",
          "type": "address"
        }
      ],
      "name": "transferOwnership",
      "outputs": [],
      "stateMutability": "nonpayable",
      "type": "function"
    }
  ],
  "transactionHash": "0xb4a26a98d7455dec06f28d459e2f07e7a37d696f7e9a489a3ab97f9538e13fb9",
  "args": [
    "0xB2b5841DBeF766d4b521221732F9B618fCf34A87"
  ],
  "numDeployments": 1,
  "solcInputHash": "318f8eaf08cb603e02e7ce6b755889c1",
  "bytecode": "0x60806040526000600260006101000a81548173ffffffffffffffffffffffffffffffffffffffff021916908373ffffffffffffffffffffffffffffffffffffffff16021790555034801561005257600080fd5b50604051610a56380380610a56833981810160405281019061007491906102c0565b6100906100856100a560201b60201c565b6100be60201b60201c565b61009f8161018460201b60201c565b506102ed565b60006100b96101c760201b6103721760201c565b905090565b6000600160009054906101000a900473ffffffffffffffffffffffffffffffffffffffff16905081600160006101000a81548173ffffffffffffffffffffffffffffffffffffffff021916908373ffffffffffffffffffffffffffffffffffffffff1602179055508173ffffffffffffffffffffffffffffffffffffffff168173ffffffffffffffffffffffffffffffffffffffff167f8be0079c531659141344cd1fd0a4f28419497f9722a3daafe3b4186f6b6457e060405160405180910390a35050565b806000806101000a81548173ffffffffffffffffffffffffffffffffffffffff021916908373ffffffffffffffffffffffffffffffffffffffff16021790555050565b600060146000369050101580156101e957506101e83361020460201b60201c565b5b156101fd57601436033560601c9050610201565b3390505b90565b60008060009054906101000a900473ffffffffffffffffffffffffffffffffffffffff1673ffffffffffffffffffffffffffffffffffffffff168273ffffffffffffffffffffffffffffffffffffffff16149050919050565b600080fd5b600073ffffffffffffffffffffffffffffffffffffffff82169050919050565b600061028d82610262565b9050919050565b61029d81610282565b81146102a857600080fd5b50565b6000815190506102ba81610294565b92915050565b6000602082840312156102d6576102d561025d565b5b60006102e4848285016102ab565b91505092915050565b61075a806102fc6000396000f3fe608060405234801561001057600080fd5b506004361061007c5760003560e01c8063715018a61161005b578063715018a6146100d95780638da5cb5b146100e3578063ce1b815f14610101578063f2fde38b1461011f5761007c565b80624225b814610081578063239e26f21461009f578063572b6c05146100a9575b600080fd5b61008961013b565b604051610096919061053d565b60405180910390f35b6100a7610161565b005b6100c360048036038101906100be9190610589565b61022e565b6040516100d091906105d1565b60405180910390f35b6100e1610287565b005b6100eb61029b565b6040516100f8919061053d565b60405180910390f35b6101096102c5565b604051610116919061053d565b60405180910390f35b61013960048036038101906101349190610589565b6102ee565b005b600260009054906101000a900473ffffffffffffffffffffffffffffffffffffffff1681565b6000600260009054906101000a900473ffffffffffffffffffffffffffffffffffffffff1690506101906103a9565b600260006101000a81548173ffffffffffffffffffffffffffffffffffffffff021916908373ffffffffffffffffffffffffffffffffffffffff1602179055507facc718a11fbc93a22905740808767480f9efd07b1c0b0128095790cd1440048d81600260009054906101000a900473ffffffffffffffffffffffffffffffffffffffff166040516102239291906105ec565b60405180910390a150565b60008060009054906101000a900473ffffffffffffffffffffffffffffffffffffffff1673ffffffffffffffffffffffffffffffffffffffff168273ffffffffffffffffffffffffffffffffffffffff16149050919050565b61028f6103b8565b6102996000610436565b565b6000600160009054906101000a900473ffffffffffffffffffffffffffffffffffffffff16905090565b60008060009054906101000a900473ffffffffffffffffffffffffffffffffffffffff16905090565b6102f66103b8565b600073ffffffffffffffffffffffffffffffffffffffff168173ffffffffffffffffffffffffffffffffffffffff161415610366576040517f08c379a000000000000000000000000000000000000000000000000000000000815260040161035d90610698565b60405180910390fd5b61036f81610436565b50565b6000601460003690501015801561038e575061038d3361022e565b5b156103a257601436033560601c90506103a6565b3390505b90565b60006103b3610372565b905090565b6103c06103a9565b73ffffffffffffffffffffffffffffffffffffffff166103de61029b565b73ffffffffffffffffffffffffffffffffffffffff1614610434576040517f08c379a000000000000000000000000000000000000000000000000000000000815260040161042b90610704565b60405180910390fd5b565b6000600160009054906101000a900473ffffffffffffffffffffffffffffffffffffffff16905081600160006101000a81548173ffffffffffffffffffffffffffffffffffffffff021916908373ffffffffffffffffffffffffffffffffffffffff1602179055508173ffffffffffffffffffffffffffffffffffffffff168173ffffffffffffffffffffffffffffffffffffffff167f8be0079c531659141344cd1fd0a4f28419497f9722a3daafe3b4186f6b6457e060405160405180910390a35050565b600073ffffffffffffffffffffffffffffffffffffffff82169050919050565b6000610527826104fc565b9050919050565b6105378161051c565b82525050565b6000602082019050610552600083018461052e565b92915050565b600080fd5b6105668161051c565b811461057157600080fd5b50565b6000813590506105838161055d565b92915050565b60006020828403121561059f5761059e610558565b5b60006105ad84828501610574565b91505092915050565b60008115159050919050565b6105cb816105b6565b82525050565b60006020820190506105e660008301846105c2565b92915050565b6000604082019050610601600083018561052e565b61060e602083018461052e565b9392505050565b600082825260208201905092915050565b7f4f776e61626c653a206e6577206f776e657220697320746865207a65726f206160008201527f6464726573730000000000000000000000000000000000000000000000000000602082015250565b6000610682602683610615565b915061068d82610626565b604082019050919050565b600060208201905081810360008301526106b181610675565b9050919050565b7f4f776e61626c653a2063616c6c6572206973206e6f7420746865206f776e6572600082015250565b60006106ee602083610615565b91506106f9826106b8565b602082019050919050565b6000602082019050818103600083015261071d816106e1565b905091905056fea264697066735822122078bae54da50aea5c5b478a3b5d6578948bc350ad858544b9a2e4140fb4c9b79364736f6c634300080c0033",
  "devdoc": {
    "kind": "dev",
    "methods": {
      "getTrustedForwarder()": {
        "returns": {
          "forwarder": "The address of the Forwarder contract that is being used."
        }
      },
      "isTrustedForwarder(address)": {
        "params": {
          "forwarder": "The address of the Forwarder contract that is being used."
        },
        "returns": {
          "_0": "isTrustedForwarder `true` if the Forwarder is trusted to forward relayed transactions by this Recipient."
        }
      },
      "owner()": {
        "details": "Returns the address of the current owner."
      },
      "renounceOwnership()": {
        "details": "Leaves the contract without owner. It will not be possible to call `onlyOwner` functions anymore. Can only be called by the current owner. NOTE: Renouncing ownership will leave the contract without an owner, thereby removing any functionality that is only available to the owner."
      },
      "transferOwnership(address)": {
        "details": "Transfers ownership of the contract to a new account (`newOwner`). Can only be called by the current owner."
      }
    },
    "version": 1
  },
  "userdoc": {
    "kind": "user",
    "methods": {
      "getTrustedForwarder()": {
        "notice": ":warning: **Warning** :warning: The Forwarder can have a full control over your Recipient. Only trust verified Forwarder.Method is not a required method to allow Recipients to trust multiple Forwarders. Not recommended yet."
      },
      "isTrustedForwarder(address)": {
        "notice": ":warning: **Warning** :warning: The Forwarder can have a full control over your Recipient. Only trust verified Forwarder."
      }
    },
    "version": 1
  },
  "storageLayout": {
    "storage": [
      {
        "astId": 7,
        "contract": "contracts/CaptureTheFlag.sol:CaptureTheFlag",
        "label": "_trustedForwarder",
        "offset": 0,
        "slot": "0",
        "type": "t_address"
      },
      {
        "astId": 134,
        "contract": "contracts/CaptureTheFlag.sol:CaptureTheFlag",
        "label": "_owner",
        "offset": 0,
        "slot": "1",
        "type": "t_address"
      },
      {
        "astId": 281,
        "contract": "contracts/CaptureTheFlag.sol:CaptureTheFlag",
        "label": "currentHolder",
        "offset": 0,
        "slot": "2",
        "type": "t_address"
      }
    ],
    "types": {
      "t_address": {
        "encoding": "inplace",
        "label": "address",
        "numberOfBytes": "20"
      }
    }
  }
}